:100000000C9405020C944C020C944C020C944C027F
:100010000C944C020C944C020C944C020C944C0228
:100020000C944C020C944C020C94C0220C9494231B
:100030000C94F01D0C944C020C944C020C944C0249
:100040000C944C020C944C020C944C020C944C02F8
:100050000C944C020C943B1E0C944C020C944C02DD
:100060000C944C020C944C020C944C020C944C02D8
:100070000C944C020C944C020C944C020C944C02C8
:100080000C944C020C944C020C944C020C944C02B8
:100090000C944C020C944C020C944C020C944C02A8
:1000A0000C944C020C944C020C944C02A800AC0032
:1000B000AB00AD00005700047F3F1F643214643270
:1000C00014783C1E1E140A052223252628292A2CD2
:1000D0002D2F3032333536383A3B3D3E4042434592
:1000E00047494A4C4E5051535557595A5C5E6062CD
:1000F000646668696B6D6F71737577797B7D7F81DD
:10010000838587898A8C8E90929496989A9C9E9FDC
:10011000A1A3A5A7A8AAACAEAFB1B3B4B6B8B9BBFA
:10012000BCBEBFC1C2C3C5C6C7C9CACBCCCDCED069
:10013000D1D2D2D3D4D5D6D7D7D8D9D9DADADBDB56
:10014000DBDCDCDCDCDCDDDDDDDDDCDCDCDCDCDBED
:10015000DBDBDADAD9D9D8D7D7D6D5D4D3D2D2D136
:10016000D0CECDCCCBCAC9C7C6C5C3C2C1BFBEBC29
:10017000BBB9B8B6B4B3B1AFAEACAAA8A7A5A3A19A
:100180009F9E9C9A98969492908E8C8A898785835C
:10019000817F7D7B79777573716F6D6B696866643C
:1001A00062605E5C5A5957555351504E4C4A49470C
:1001B000454342403E3D3B3A3836353332302F2DB1
:1001C0002C2A292826252322FFAA7F554000010139
:1001D0000101010101010102020202020202020206
:1001E00003030303030303030404040404040405D6
:1001F000050505050606060606070707070708089A
:100200000808090909090A0A0A0B0B0B0C0C0C0D4A
:100210000D0D0E0E0E0F0F0F1010111111121213E3
:10022000131414151516161717181819191A1A1B5E
:100230001B1C1D1D1E1E1F202021222223242425BD
:100240002626272829292A2B2C2D2D2E2F303132F6
:1002500032333435363738393A3B3C3D3E3F404106
:1002600042434445464748494A4C4D4E4F505153EE
:1002700054555658595A5B5D5E5F616264656668A5
:10028000696B6C6D6F7072737577787A7B7D7E8029
:1002900082838587888A8C8E8F91939596989A9C75
:1002A0009EA0A2A3A5A7A9ABADAFB1B3B5B7BABC89
:1002B000BEC0C2C4C6C9CBCDCFD1D4D6D8DBDDDF5A
:1002C000E2E4E7E9EBEEF0F3F5F8FAFDFF040330C2
:1002D00000000016036D0069006E0069004D0041CA
:1002E00000430052004F00350000001E036C006503
:1002F00000610066006300750074007400650072A0
:10030000006C00610062007300000004030904092E
:10031000023B00020100A0FA0904000001030101F0
:100320000009211101000122400007058103080096
:100330000A09040100010300000009211101000164
:10034000226D000705820320000A1201100100003F
:100350000008EBCE0700010001020301050109803E
:10036000A101850319012AB700150126B7009501DF
:1003700075108100C0050C0901A101850419012A2D
:10038000A002150126A002950175108100C005018B
:100390000906A1018505050719E029E715002501D2
:1003A0009508750181020507190029EF150025013F
:1003B00095F075018102050819012905950575015A
:1003C0009102950175039101C005010906A101057E
:1003D0000719E029E71500250195087501810295A7
:1003E00001750881010507190029FF150026FF0086
:1003F00095067508810005081901290595057501FF
:100400009102950175039101C00011241FBECFEF29
:10041000DAE0DEBFCDBF04B603FE27C08091C6027E
:100420009091C702A091C802B091C9028730904B49
:10043000A740B04BD1F41092C6021092C70210929E
:10044000C8021092C90214BE84B7877F84BF0FB65A
:10045000F894A89580916000886180936000109264
:1004600060000FBEE0E0F8E3099511E0A0E0B1E024
:10047000E2E4FCE402C005900D92AA3DB107D9F771
:1004800022E0AAEDB1E001C01D92A63CB207E1F75F
:100490000E94F11F0C94E3250C9400000C94DC05E1
:1004A000FC018081813031F48EEA0E941E138EEAB5
:1004B0000C946413823011F40C945F0B833011F4AC
:1004C0000C94440B0895811106C089EA611101C0A2
:1004D0008AEA0C948C13813029F480E26111F9CFFF
:1004E00081E2F7CF823029F482E26111F2CF83E218
:1004F000F0CF833029F484E26111EBCF85E2E9CFBC
:10050000843029F486E26111E4CF87E2E2CF0895D6
:10051000CF93DF939C013A9521153F4168F5EC019B
:10052000CC27D170DC01AA27B270AC0144275470EB
:100530009C012227387094FF11C080E1CD2B09F473
:1005400080E0AB2B09F08062452B09F08064232BFF
:1005500009F08068FB01DF91CF91099481E0CD2BF8
:1005600009F480E0AB2B09F08260452B09F0846030
:10057000232B81F38860EECFDF91CF910895CF9345
:10058000DF93EC01805E9109089720F06AEE75E137
:10059000209711F46FE973E1CE010E9488028C2F3D
:1005A000DF91CF910C941E13CF93DF93EC010E9447
:1005B0006413CE01805E9109089720F061EF75E128
:1005C000209711F466EA73E1CE01DF91CF910C948C
:1005D0008802CF93DF93EC010E94BF02CE01DF912E
:1005E000CF910C94D40281E0089581E008950C9499
:1005F000F50208950C94F9021F93CF93DF9300D076
:1006000000D00F92CDB7DEB749835A836B83309108
:10061000080289819A8131111DC06623B9F0222315
:10062000A9F00E94F71A182F682F89819A810E94D9
:10063000A01A69817A81812F0F900F900F900F90EF
:100640000F90DF91CF911F910C94D8030E94CE1A86
:10065000182FEFCF0E94F71A69817A81EDCFFC0144
:10066000262F408151816281738184810C94FC0228
:10067000CF93DF93EC0160E00E942F03BE01DF9176
:10068000CF910C94FA020E94411C811102C00E9479
:10069000DE1C0E94020D0E94080E0C944E020E9465
:1006A000AF110E946A0D0C94DE05282F2F7041F0C7
:1006B000822F90E02A3010F44D9608950697089501
:1006C00087E290E0089508950C94630381E0089513
:1006D0000C946603CF93C82F0E9464038C2FCF9194
:1006E0000C94680308950E940A160E9472032FEF6B
:1006F00084E39CE0215080409040E1F700C000007E
:100700000C945F1E0F931F93CF93DF93EC0161E076
:100710000E942F038C01BE010E940F11BE01C8016F
:100720000E94F7028823B9F1BE01C8010E94551149
:10073000882389F1BE01C8010E947F0E882359F1E8
:10074000BE01C8010E94210F882329F1BE01C80102
:100750000E94620F8823F9F0BE01C8010E94851033
:100760008823C9F0BE01C8010E94510C882399F06A
:100770008A81882339F001158CE5180751F00E3D68
:100780001C4579F0CE01DF91CF911F910F910C9410
:10079000F3020E94730380E0DF91CF911F910F91CC
:1007A00008950E94DE1CF7CF90E080E00895089540
:1007B000E62F272F280F3327331FC90125E0289F55
:1007C000B001299F700D1124E60FF72FF11DEE0FD8
:1007D000FF1FE455FF4F859194910895FC01EE0FA2
:1007E000FF1FEA54FF4F859194910895CF93DF93B3
:1007F0000E94D8030E940205EC01811520E59207B2
:1008000008F041C0811530E4930708F0B4C0803E81
:10081000910518F5803C910508F09DC0883A910536
:1008200070F4853A910508F08EC081309105F9F099
:100830000097E9F00497D8F4D0E0C0E018C08F3BEF
:100840009105D0F7C85AD0E0CC0FDD1FCC5CDE4F4D
:100850000990D881C02DD4640AC08115904258F403
:10086000C11581E0D80718F4C83ED10528F7CE019C
:10087000DF91CF910895C11590E3D90708F071C0B9
:10088000CE019F706AC0811525E5920758F5811544
:1008900034E5930708F09EC0811542E5940750F4B3
:1008A000C11581E5D80708F469C0DC2FCC27C16FDA
:1008B000D06ADDCF982F969596959E0123703327A9
:1008C000C115D34508F077C0C1E0D0E002C0CC0F1D
:1008D000DD1F2A95E2F720E2929FC0011124C82B68
:1008E000D92B67C0C11589E5D807A8F4C11598E5CB
:1008F000D90708F074C0C11526E5D20708F09CCFCF
:100900008C2F0E949905C82FD0E0DC2FCC27CC2754
:10091000DF71D062ACCFC1153AE5D30708F464C0EB
:10092000CE0190568115904208F086CF8D2F8F71A1
:100930000E94990590E0982F882788279F719C0135
:100940002C2BE901E6CFC55AD0E0CE59DE4FC88145
:10095000D0E0D0648CCF805C91090E94EE03EC0162
:1009600086CFCE019927D3FF03C0EC01D86C7FCF8F
:10097000EC01D06C7CCFDF70D06A79CFCE01E4E09F
:1009800096958795EA95E1F783702C2F2695269505
:10099000237090E2299F90011124382B8C2F8370B3
:1009A000C1E0D0E002C0CC0FDD1F8A95E2F7C22B78
:1009B000D32BDC685CCFC1E0D0E002C0CC0FDD1FE0
:1009C0002A95E2F730E2939FC0011124C82BD92B5E
:1009D000DA684DCFD82FCC27C46FD06A48CFDC2F30
:1009E000CC27C06FD06A43CF8C2F8F700E9499059F
:1009F00034E0D695C7953A95E1F7CF709C2FEC017E
:100A0000D06935CF82389105B1F1B0F481339105C9
:100A100009F475C048F48932910509F469C08A3235
:100A2000910509F473C008958533910509F459C0FF
:100A30008933910501F10895833E9105A9F138F4B8
:100A4000803E9105F9F0823E910549F10895863E78
:100A50009105A9F1873E9105C9F1843E910519F5EB
:100A60002091B80221FF1FC08091B70284FD14C0FD
:100A700087EE90E008952091B7022370A1F080EEF8
:100A800090E008952091B70220FD47C03091B80250
:100A900030FF09C024FF44C090E080E004C02091F2
:100AA000B70222FDF7CF08952091B70222FD3BC087
:100AB0003091B80230FDE3CF24FFF5CFEDCF209188
:100AC000B70223FFF0CF24FDE7CFD2CF2091B702AA
:100AD00023FD2CC03091B80231FFEECF84EE90E0C0
:100AE00008952091B70225FFDECF89E290E00895B6
:100AF0002091B70225FFD7CF85E390E0089520919C
:100B0000B70226FFD0CF8AE290E008952091B70285
:100B100026FFC9CF81E390E0089589E390E008952E
:100B200083EE90E0089582EE90E0089586EE90E0E6
:100B300008959091B70292FF06C0282F287128309F
:100B4000F9F4877F846093FF06C0282F287128312D
:100B5000F1F4877E84612091B80220FF06C0382F0F
:100B600038713830D9F4877F816021FF06C0282F83
:100B700028712831D1F4877E816194FD877E0895A4
:100B8000282F24712430F9F68B7F8860DCCF282F42
:100B90002471243101F78B7E8861DDCF382F3171CC
:100BA000313019F78E7F8860E0CF282F21712131F5
:100BB00021F78E7E8861E1CF089508950C94DD05BC
:100BC000E82FF0E0E756FD4F808108950895CF9318
:100BD000A5E6B1E04AE651E061E070E08D918F3F1B
:100BE00091F0E82FE295EF70F0E0C1A18F709B01CA
:100BF00001C0220F8A95EAF7922F90959C2391A32A
:100C000082A1822B82A34A175B0741F710929802B8
:100C10001092990281E00E945506CF910C944303F3
:100C2000CF93DF93D091980210929802A5E6B1E09D
:100C300050E040E061E070E02D912F3FD9F0E22FCD
:100C4000E295EF70F0E080A190E02F7002C09595E2
:100C500087952A95E2F780FD26C0CB01042E02C0BD
:100C6000880F991F0A94E2F79C0180919802822BC9
:100C7000809398024F5F5F4F45305105E9F6C1E020
:100C8000809198028D1301C0C0E02C2F41E069E9EA
:100C900072E088E992E00E9456060E944F038C2F72
:100CA000DF91CF91089520E0E0CF0895FF920F9358
:100CB0001F93CF93DF93F82E092F162FD72FC42F12
:100CC000222349F081E08093DC010E94201E909352
:100CD000DB018093DA018091DC018823A1F080910F
:100CE000DA019091DB010E942C1E069760F0EF2D37
:100CF000F02FA12FBD2FCE0FDF2FD11DEC17FD0739
:100D000041F41092DC01DF91CF911F910F91FF9080
:100D1000089581918D93F2CFAF92BF92CF92DF92DF
:100D2000FF920F931F93CF93DF93362F472FE82F18
:100D3000F0E0E353FE4F71110DC06491762F862FC2
:100D4000DF91CF911F910F91FF90DF90CF90BF90D7
:100D5000AF900895C72FD0E02491F22E022F10E01B
:100D600056E0659FC0011124EFEFF0E0BF010E9443
:100D70005425832F90E0880F991F35E5369FD001C9
:100D8000379FB00D11248A1B9B0B982F990F980F3A
:100D90006F01CC1ADD0AC09ED001C19EB00DD09E5D
:100DA000B00D11248B2F949FA0011124452F55279E
:100DB0006F01C41AD50AC09EA001C19E500DD09EDD
:100DC000500D11245F01A91AB108AC9E6001AD9EBF
:100DD000D00CBC9ED00C1124CD2CDD24EC19FD09C7
:100DE000E09FE001E19FD00DF09FD00D1124ED2F89
:100DF00062307105A1F048F46115710569F0613048
:100E0000710589F0EB2F852F07C06430710571F0F3
:100E100088F066307105B1F76E2F722F91CFE22FF7
:100E20002B2F8D2FF9CFE22F252FF6CFEB2F822FEF
:100E30002D2FF2CF2B2F8F2DE52FEECF0895CF93AF
:100E4000DF93762FE901682F842F0E948C06798327
:100E500068838A83DF91CF91089580919A02982FB9
:100E60009E7F29F48170826080939A0208958A346B
:100E7000E8F381708864F8CF88E090E00C94A325B3
:100E8000CF92DF92EF92FF926B017C010E942D07BF
:100E9000B701A60188E090E0FF90EF90DF90CF903F
:100EA0000C94C125EAE9F2E083E0808311828FEFA0
:100EB00082838383148260817181828193810C9407
:100EC000400780919A0280FF02C08695089580E0D5
:100ED000089580919E02833018F48F5F80939E0264
:100EE00060919A0270919B0280919C0290919D0268
:100EF0000C94400780919E02882319F081508093C2
:100F00009E0260919A0270919B0280919C02909146
:100F10009D020C94400760911A0170E080919A0242
:100F200080FF0AC08091E10123E0829FC00111246B
:100F300081569D4F0C94FD0C8091E0019091190118
:100F400023E0829FF0011124E156FD4F891750F7ED
:100F50001182108212828F5F3396F8CF90919A029D
:100F600090FF14C09091E0012091190133E0939F0C
:100F7000F0011124E156FD4F921710F00C948B07ED
:100F80008183608342839F5F3396F6CF0895CF932A
:100F9000DF9300D00F92CDB7DEB790919A0290FF09
:100FA0000AC09E012F5F3F4F0E941F074B8169813E
:100FB0008A810E94AE070F900F900F90DF91CF9122
:100FC0000895CF93DF93EC01EC81F0E0E853FF4FFD
:100FD0004491EAE9F2E0628181810E94C7078C8135
:100FE0008F5F8C83DF91CF910895CF93DF93EC01D6
:100FF000EAE9F2E0438162818C810E94C7078C811B
:101000008F5F8C83DF91CF9108950F931F93CF93C0
:10101000DF9300D00F92CDB7DEB78C018091DD0158
:1010200081110AC09E012F5F3F4F4FEF6FEF0E946B
:101030001F078A818093DD01F8016481613069F0C6
:101040008091DD0140E0662361F040E0623011F400
:101050004091DD0180E060E004C06091DD0140E08E
:1010600080E00E94AE07F801848190E0019663E081
:1010700070E00E94682584830F900F900F90DF919D
:10108000CF911F910F910895AF92BF92CF92DF92AF
:10109000EF92FF920F931F93CF93DF9300D00F92A5
:1010A000CDB7DEB7182FF62E042FE22E90919A02BC
:1010B00090FF29C0E92FE695AE2FB0E0A659BE4FAC
:1010C0008C918093E9019E7F923059F59E012F5FAC
:1010D0003F4F812F0E941F074B8169818A810E94A7
:1010E000AE0710939B02F0929C0200939D02EE20AB
:1010F00051F060919A0270919B0280919C029091B4
:101100009D020E9440070F900F900F90DF91CF91AA
:101110001F910F91FF90EF90DF90CF90BF90AF9015
:101120000895823019F400919D02DBCF863019F4C6
:1011300010919B02D6CF8930D9F3893191F6E951CC
:101140008E2F8170D82EE695F0E0E853FE4FA590E3
:10115000B490C12CBB2460911801C61618F00E94EF
:101160008B07BFCF2C2D30E0A29EC001A39E900D17
:10117000B29E900D112470E00E945425812FD11051
:1011800013C0860F4091E001420F532F511D9A0169
:10119000220F331F240F351F21563D4F402F6F2D37
:1011A0000E941F07C394D7CF861BECCFEAE9F2E079
:1011B0009181282F4381628188E0890F0C94440833
:1011C00081E00C94D608EAE9F2E09181282F43816E
:1011D000628188EF890F0C94440881E00C94E30845
:1011E000EAE9F2E0628121E1620F08F46FEF282F53
:1011F000438181810C94440881E00C94F008EAE971
:10120000F2E0628121E1621B08F460E0282F438153
:1012100081810C94440881E00C94FF08EAE9F2E033
:10122000438121E1420F08F44FEF282F6281818131
:101230000C94440881E00C940E09EAE9F2E0438141
:1012400021E1421B08F440E0282F628181810C9447
:10125000440881E00C941D0920E00C944408EF92AE
:10126000FF921F93CF93DF93EC0110E0EE24EA94FA
:10127000F12C60911801161770F00E948B079A816B
:101280008C8190FF27C08F5F8C83DF91CF911F915E
:10129000FF90EF9008952091E001422F410F5527D4
:1012A000551FCA019A01220F331F280F391F2156DB
:1012B0003D4F70E0C7010E946825962F8C814091B8
:1012C0009D0260919C02199F800D11240E941F07AE
:1012D0001F5FCFCF8150D8CFAF92BF92CF92DF9216
:1012E000EF92FF920F931F93CF93DF93FC018281C4
:1012F0000FEF80FF01E010E045E0A42E809118017F
:101300001817C8F00E948B078091DF01013009F0A7
:1013100055C0811102C08091180181508093DF0176
:10132000DF91CF911F910F91FF90EF90DF90CF90C1
:10133000BF90AF900895C091E001C12ED12CCC0D8B
:10134000DD2DD11DCE01880F991FC80FD91FC156A1
:10135000DD4F198218821A8234E0E32EF12CB12C71
:101360008091DF018B0D86301CF16A2D0E9446258D
:10137000892F082E000C990BC816D90691F480917C
:101380009D028E9DA0018F9D500D1124559547956E
:10139000559547959E0160919C0280919B020E9409
:1013A0001F07B00EF1E0EF1AF108D1F61F5FA6CFCC
:1013B00087FFDFCF90911801890FDBCF90E0019676
:1013C0006091180170E00E946825A8CF0F931F93C9
:1013D000CF93DF938091E0019091190123E0829FE8
:1013E000F0011124E156FD4F891740F1C0E0D3E030
:1013F00060911801C61740F10E948B0720911601D9
:101400008091DE01820F8093DE0190911701920F8F
:1014100090931701191654F4082E000C990B409163
:1014200018014150550B841795071CF02195209306
:101430001601DF91CF911F910F91089511821082B3
:1014400012828F5F3396D0CF0C2F10E070E0C8016E
:101450000E9468252091E001820F482F50E02091E2
:10146000DE01022E000C330B02171307BCF0209193
:101470001701022E000C330B201731077CF08D9FD3
:101480009001112421563D4F40919D0260919C0294
:1014900080919B020E941F07CF5FAACFFA01EE0F37
:1014A000FF1FE40FF51FE156FD4F118210821282DB
:1014B000F3CF0F931F93CF93DF938C01FC018481B3
:1014C000958101968170992795838483C0E0D5E545
:1014D00080911801C81730F0DF91CF911F910F91C3
:1014E0000C948B072091E001422F4C0F5527551F7C
:1014F000CA019A01220F331F280F391F21563D4F71
:101500008C2F8695F80144815581840F952F911D6C
:10151000817040919D0260919C028D9F802D1124CD
:101520000E941F07CF5FD4CF0F931F93CF93DF93FA
:10153000EC0110E000E0909118019017110609F0FD
:101540006CF40E948B078C8190E001968170992742
:101550008C83DF91CF911F910F9108952091E0012D
:10156000A801420F511D9A01220F331F240F351F6E
:1015700021563D4F4C8160919C0280919B02969533
:101580009017110651F04CF0442349F040919D0210
:101590000E941F070F5F1F4FCECF4423B9F340E0D7
:1015A000F7CFEAE9F2E080818E7F808360817181EC
:1015B000828193810E9440071092EA012FEF80E719
:1015C00092E0215080409040E1F700C000000C9470
:1015D0008B0760919A02669570E04BE050E08BE1DA
:1015E00091E00E948E25892B19F481E08093EA0115
:1015F0000E94201E9093E3018093E2010895909150
:101600009A0290FF35C09170811128C0926090932A
:101610009A02662351F060919A0270919B02809128
:101620009C0290919D020E94400760919A026695EB
:1016300070E04BE050E08BE191E00E948E25892B19
:10164000A1F01092EA0181E08093E50140919D02B2
:1016500060919C0280919B020C942C09853210F0C1
:101660009864D5CF880F982BD2CF0E94E90AEBCF90
:101670000895682F90919A02969581E0890F85329E
:1016800008F081E00C94FF0A81E00C94390B682F7C
:1016900090919A0296958FEF890F09F484E20C9449
:1016A000FF0A81E00C94470B61E00C94FF0AEAE921
:1016B000F2E080818160808386950C94540B809148
:1016C0009A0280FD0C94D10A0C94570B60E00C94A4
:1016D000FF0A8091E80181112EC00E94411C8111F6
:1016E00004C00E94DE1C0E9452070E943C076093C7
:1016F0009A0270939B0280939C0290939D026E7F4E
:1017000061F40E9452070E943C0760939A02709312
:101710009B0280939C0290939D020E942D07109241
:10172000EA0180919A0280FF03C086950E94660BB1
:1017300081E08093E80108950F931F93CF93DF9387
:101740008091EA01882309F48DC08091E901E0913C
:101750009A02E695E81BE093E4018230C9F5F0E0D7
:10176000EC53FF4FE491CE2FD0E001EE17E08091D3
:10177000E501882389F01092E5010E94201E9E0158
:1017800020953095820F931F9093E3018093E2019F
:101790001092E7011092E6018091E2019091E3013D
:1017A0000E942C1E8C179D0708F45CC0E091E2019A
:1017B000F091E301CE0FDF1FD093E301C093E2016C
:1017C00082EE91E0F801DF91CF911F910F91099482
:1017D000863049F4F0E0EF53FF4FE491CE2FD0E094
:1017E00005EF17E0C4CF893051F4E695F0E0E254FC
:1017F000FF4FE491CE2FD0E00FE219E0B8CF8F3049
:1018000051F4E695F0E0E554FF4FE491CE2FD0E09F
:101810000CE619E0ACCF853149F4F0E0E854FF4F15
:10182000E491CE2FD0E006EE19E0A1CFC8EED3E0D0
:1018300009E51AE0883109F49ACF833239F4E6EBEE
:10184000F0E0C591D49105E018E091CFC4EFD1E06C
:1018500004E91AE0843209F48ACFC0EDD7E00EE142
:1018600017E085CFDF91CF911F910F910895FA0175
:10187000811101C0FB010994CF93DF93C82FD62FAC
:101880000E9461078C1740F00E9461078D1720F4B9
:10189000DF91CF910C94440B8C2FDF91CF910C945E
:1018A000540B0F931F93CF938C01FB01C281CC2368
:1018B00009F465C00E948C1B8272F801E25CFC4551
:1018C000E431F10538F4EB51FA4D0C947C250E947B
:1018D0005F0BC0E08C2FCF911F910F91089541E5D0
:1018E0005BE064E47BE00E94370CF3CF44E45BE010
:1018F00061E57BE0F8CF4DEE58E060EE78E0F3CFA5
:1019000040EE58E06DEE78E0EECF4BE059E06CEF42
:1019100078E0E9CF4CEF58E06BE079E0E4CF49E2C2
:1019200059E06AE179E0DFCF4AE159E069E279E024
:10193000DACF4AE757E069E677E0D5CF49E657E0E6
:101940006AE777E0D0CF81E00E94540BC2CF65E018
:1019500082E00E943C0CBDCF68E086E0FACF6EE0EA
:1019600089E0F7CF64E18FE0F4CF67E185E1F1CF63
:1019700088E1EACF62E289E1ECCF83E2E5CFC1E022
:10198000A9CF24B1342F3F70A1E0B0E001C0AA0F6D
:101990003A95EAF72A2B24B942954F70E42FF0E0EC
:1019A00022A14A2F4095422332A1A32B5FB7F8947E
:1019B0009B01220F331F260F371F280F391F2817AF
:1019C000390741F45FBF87EC90E00197F1F700C061
:1019D00000000895FC016191CF0178E0A5B90000F5
:1019E00000C067FF45B9660F000000C000C000C01E
:1019F00045B900C07A9591F7E2CF45E30C94C10C4C
:101A00000C946302AF92BF92CF92DF92EF92FF925B
:101A10000F931F93CF93DF93A4EAB1E02FE931E056
:101A200085EFA82E81E0B82E69EA71E041E050E030
:101A30000D91802F82958F7090E0FC01C1A10F70F5
:101A40007A01002E01C0EE0C0A94EAF7FE2DF09503
:101A5000CF23FC01C1A3C2A1CE29C2A3E9011991E0
:101A60009E01E12FE295EF70F0E0F1A01F706A0196
:101A7000012E01C0CC0C0A94EAF7EC2CE094EF2084
:101A8000E1A2F2A0FC28F2A2EC0188A190E002C041
:101A9000959587950A95E2F78170E0A1F0E002C084
:101AA000F595E7951A95E2F790E0E0FD92E0892B35
:101AB000F50181935F016A177B0709F0B9CFDF91C8
:101AC000CF911F910F91FF90EF90DF90CF90BF903B
:101AD000AF9008959F92AF92BF92CF92DF92EF9214
:101AE000FF920F931F93CF93DF9305EF11E084EAEA
:101AF000C82E81E0D82E9FE9E92E91E0F92E20EF43
:101B0000A22E21E0B22ECBEED1E0912CD801EC91A7
:101B1000EE0FEE0FED938D01D6012D916D01A22FE9
:101B2000A295AF70B0E090968C9190E02F7002C0BB
:101B3000959587952A95E2F781709927D7014D9160
:101B40007D01A42FA295AF70B0E090962C9130E06B
:101B50004F7002C0359527954A95E2F7A90141706B
:101B6000552720FF02C042E050E0842BE82BD8012B
:101B70001197EC93EF70F0E0E157FE4F8081F50193
:101B80009081890F808384303CF088818F5F8883C7
:101B900060E0892D0E94000DD5018C918D3F3CF4B1
:101BA00088818150888361E0892D0E94000DF501B4
:101BB0008081837887FF03C081508C6F8F5FD50150
:101BC0008D935D0193942196B5E09B129FCFDF9199
:101BD000CF911F910F91FF90EF90DF90CF90BF902A
:101BE000AF909F900895CF93DF93EC0197FF0CC0C7
:101BF000FB018281882341F00E941E0ECE019F7757
:101C00000E94620E0E944A0E81E0DF91CF910895FA
:101C10008CE090E00E949B2590E0B0E0A0E08093F3
:101C2000AE029093AF02A093B002B093B1020895B8
:101C30006091AE028CE090E00C94AF250E948C1B6A
:101C40008093B2020E949F1B8091AE02813089F086
:101C5000882359F0823091F08430B9F08FE39CE909
:101C60000197F1F700C00000089582EE0E941E1354
:101C7000F5CF88E193E00E94E902F0CF82EE0E9466
:101C80001E1387E50E948C13E9CF86EE0E948C1309
:101C900088E1F8CF8091AE02813071F0882341F065
:101CA000823031F0843061F08091B2020C949C1B40
:101CB00082EE0E946413F8CF8CE20E948C13F4CF62
:101CC00088E2FBCF0F931F93CF93DF938C01CCE07F
:101CD000D0E0C8010C2E02C0969587950A94E2F7D1
:101CE0008F700E9455030E948C132497CC3F8FEF76
:101CF000D80779F7DF91CF911F910F9108950F9336
:101D00001F93CF93DF93EC018B01FB01828188232A
:101D100071F0C33EFCE5DF0719F188F4C13EECE544
:101D2000DE07C9F081E0C23EFCE5DF0789F0B801BB
:101D3000CE01DF91CF911F910F910C94F30DC43E12
:101D40008CE5D80779F084E0C53EECE5DE0779F74D
:101D50008093AE0202C01092AE020E94180EE7CF2E
:101D600082E0F6CF83E0F4CF0F931F93CF93DF93FE
:101D7000C62FD42F022FFC0182818823C9F06093E3
:101D8000FC010E94201E9093FB018093FA0180E2E7
:101D90008C0F883008F050C0C77081E001C0880FF8
:101DA000CA95EAF7DF91CF911F910F910C949F1381
:101DB0001091FC01161335C08091FA019091FB013E
:101DC0000E942C1E883C910560F5C0E2CD0F1D17C6
:101DD000B9F080E2810F883040F4177081E001C0D3
:101DE000880F1A95EAF70E94A613C83048F481E0DC
:101DF0009D2F977001C0880F9A95EAF70E949F1354
:101E0000802F0E948C13C830B8F4D77081E001C0D5
:101E1000880FDA95EAF7DF91CF911F910F910C941B
:101E2000A61380E28C0F883038F4C77081E001C0BF
:101E3000880FCA95EAF7EFCFDF91CF911F910F91ED
:101E400008959C01CB01233F4CE5340731F190F418
:101E5000283DFCE53F07E9F0293D4CE5340769F1F1
:101E6000273D3C4579F426E241EE61EE0E94B40E36
:101E700080E00895253FFCE53F07B9F090F0263F4C
:101E80003C45B9F0FC0182818823D1F01092FC011D
:101E9000089527E245EE65EEE9CF26E241EE60EED9
:101EA000E5CF27E245EE64EEE1CF26E241EE62EEB9
:101EB000DDCF27E245EE66EED9CF28E241E0EBCF59
:101EC00081E00895CF93DF93EC01FB0182818823A9
:101ED00009F419C1C230FCE5DF07C0F1C6319CE549
:101EE000D90730F09E012A5F3C452930310570F555
:101EF0000E94541C9093B8028093B702C031ECE565
:101F0000DE0709F4CFC008F05BC0C8308CE5D80705
:101F100009F4B6C088F5C430ECE5DE0709F4A8C0C2
:101F2000C0F4C2308CE5D80709F49CC08091B70298
:101F30008260C330DC4509F498C08091B70290916B
:101F4000B8020E94621C0E940A1680E0DF91CF91C5
:101F500008958091B7028061C630ECE5DE0709F490
:101F600084C08091B7028860C730DC4508F47DC02A
:101F70008091B702806279C0CC308CE5D80709F433
:101F800089C070F48091B7028C60CA30ECE5DE073E
:101F900009F46BC008F478C08091B7028E7F65C0E9
:101FA000CE308CE5D80709F479C08091B7028B7FD9
:101FB000CF30DC4508F459C08091B7028F7E55C000
:101FC000CB3FECE5DE0709F457C030F5C3318CE5B3
:101FD000D80709F46FC078F4C131ECE5DE0709F4E5
:101FE00065C0C231DC4509F0A8CF0E940A16809175
:101FF000B7028F773AC0C5318CE5D80709F462C0C3
:1020000008F476C08091B8028160CA3FDC4509F0CF
:1020100094CF8093B80291CFCF3FFCE5DF0709F45E
:102020004DC088F48091B8028D7FCD3F9CE5D907E3
:1020300081F38091B8028E7FCE3FDC4550F38091D2
:10204000B8028360E6CFC130FDE5DF0709F459C06F
:1020500008F444C080E0C230DD4509F06ECF0E9434
:10206000E01C6BCF8091B70281608093B70265CF8F
:102070008091B7028460F9CF8091B8028260C9CFA5
:102080008091B7028064F1CF0E940A168091B70256
:102090008068EBCF8091B7028D7FE7CF8091B70248
:1020A000877FE3CF8091B7028F7DDFCF8091B7022A
:1020B0008F7BDBCF8091B702837FD7CF8091B8022F
:1020C0008C7FA7CF8091B70282FB992790F921E0FE
:1020D000922790FB82F990FB83F9C7CF8091B802D9
:1020E000982F909591708E7F892B90FB81F991CFDD
:1020F0000E940A169091B702892F97FB87F98058A2
:10210000B4CF81E0ACCF81E021CFCF93DF93EB015F
:1021100086319C4511F50E948C1B9A81992399F078
:102120008A7A91E009F490E09093FD01811109C051
:1021300089E20E94671B0E94DE1B80E0DF91CF9145
:10214000089585E3F6CF8091FD01811104C089E2F5
:102150000E946E1BF0CF85E3FBCF81E0EFCFCF93E2
:10216000DF93EC0181E0898B8F810E948F1B888532
:102170000E94A51B0E94DE1BEA81FB81309739F08B
:102180006C897D89CE010696DF91CF910994DF910C
:10219000CF910895EF92FF920F931F93CF93DF9308
:1021A000EC018A85811134C0EB80FC8087E5F81A48
:1021B00026E12E9DC0012F9D900D1124DC01A05021
:1021C000BF4F1496ED91FC911597309731F05496CE
:1021D0006D917C918A5F9E4F099586E18E9D80016D
:1021E0008F9D100D112400501F4FF80187810E9410
:1021F000951BF80180850E94AB1B0E94DE1B188294
:1022000019861B861E821D821092FF011092FE010C
:10221000DF91CF911F910F91FF90EF900895DF9282
:10222000EF92FF920F931F93CF93DF937C01FB01FB
:102230008281882391F0809126018F3F71F0C0E068
:10224000D1E010E000E0DD24D39480912601082E37
:10225000000C990B8017910744F4DF91CF911F91E7
:102260000F91FF90EF90DF9008958E818823C9F041
:1022700089859A858E159F0539F48091FE0190918C
:10228000FF018E159F0569F0DF86FC86EB86898944
:10229000811103C0CE010E94AF10CE0106960E94AC
:1022A000CA100F5F1F4F6696D0CFEF92FF920F9329
:1022B0001F93CF93DF937C0197558F3F910509F0D2
:1022C000D8F520912601022E000C330B2817390770
:1022D00014F480932601FB01228136E1389F8001AE
:1022E000399F100D1124E801C050DF4F288B9281D7
:1022F0008E81992349F1FA86E9868F5F8E830E9449
:10230000201E9E878D870E94C51B8F830E948C1B79
:1023100088870E94A21B9885892B8887E881F9818C
:10232000309731F06C897D89C8018A5F9E4F09958D
:10233000F092FF01E092FE0181E0DF91CF911F91C9
:102340000F91FF90EF9008958823B1F38989882336
:1023500099F3C8018A5F9E4F0E94CA10EDCFEF9299
:10236000FF920F931F93CF93DF938091260110E08C
:1023700006E18F3FC1F5DF91CF911F910F91FF9043
:10238000EF900895029FF001039FF00D1124E0509B
:10239000FF4FE288F388E114F10419F488ECE82E89
:1023A000F12C029FE001039FD00D1124C050DF4F9C
:1023B0008E818823B9F08D859E850E942C1EE8169B
:1023C000F90680F4109F700111248989811105C0DC
:1023D000C70180509F4F0E94AF10C7018A5F9E4F78
:1023E0000E94CA101F5F212F30E080912601082E25
:1023F000000C990B821793072CF6BDCF9093050222
:10240000809304020895E0910402F0910502309750
:1024100021F00190F081E02D099480E00895E09191
:102420000402F0910502309799F0209133012223A4
:1024300059F02091B70227FF07C0DC012C911196BB
:102440002C93119725E02C930280F381E02D0994C1
:10245000089520910202309103022817390771F084
:102460009093030280930202E0910402F09105022E
:10247000309721F00680F781E02D0994089520918E
:102480000002309101022817390771F09093010280
:1024900080930002E0910402F0910502309721F050
:1024A0000084F185E02D0994089585B7806885BF83
:1024B00085B7806885BF0895089508950C945C12CF
:1024C00008950C9460120E9455120E945D120C94A3
:1024D0005E1281E008950E94171E0E94E7050E9487
:1024E000701E0E94690B0C946112FF920F931F9350
:1024F000CF93DF93CDB7DEB72A970FB6F894DEBF40
:102500000FBECDBF0E9410060E94691281112FC01C
:102510008FEF89838A831B820E94201E8160782F1F
:102520009D838C8349815A816B818D810E94EF123A
:102530000E949C0B0E94031290910602891709F4D5
:1025400042C00E940312809306022A960FB6F894A6
:10255000DEBF0FBECDBFDF91CF911F910F91FF90D6
:102560000C946A038F5F000F853089F4D1CF80E02F
:102570000E94E005182FF0900702F81649F28091AA
:10258000730281FD0E94E60580E001E0F1269F2DA7
:10259000902341F38E831F82102381E009F480E0B1
:1025A00088870E94201E8160782F9A8789874E81B4
:1025B0005F8168858A850E94EF1280910702082753
:1025C00000930702B5CF2A960FB6F894DEBF0FBE70
:1025D000CDBFDF91CF911F910F91FF900895CF93C1
:1025E000DF93CDB7DEB72B970FB6F894DEBF0FBEE3
:1025F000CDBF4F83588769877A878B871E821D825C
:1026000085E0FE013796DE01119601900D928A95C4
:10261000E1F749815A816B817C818D819E812B9666
:102620000FB6F894DEBF0FBECDBFDF91CF910C94F3
:102630008018FC01808191810C94391BCF93C82FA5
:10264000882309F43FC08CEF8C0F813AA0F46C2FE3
:1026500080912701909128010E94F91C882329F07C
:102660008C2F0E946E1B0E94DE1B8C2F0E94671B0A
:10267000CF910C94DE1B80E28C0F883048F4C77039
:1026800081E001C0880FCA95EAF70E948F1BF0CF46
:10269000EBE5EC0FE33040F4F0E0E952FE4F8081CF
:1026A00090E0CF910C942912C85AC73158F4EC2FFE
:1026B000F0E0EE0FFF1FE755FE4F80819181CF9133
:1026C0000C943F12CF910895882329F19CEF980F25
:1026D000913A20F40E946E1B0C94DE1B90E2980F3E
:1026E000983050F4877091E001C0990F8A95EAF70D
:1026F000892F0E94951BF0CF9BE5980F933020F413
:1027000090E080E00C942912885A873120F490E000
:1027100080E00C943F120895CF93C82F0E941E139F
:10272000C93349F42FEF87EE93E021508040904069
:10273000E1F700C000008C2FCF910C946413882324
:1027400021F00E948F1B0C94DE1B0895882321F03A
:102750000E94951B0C94DE1B0895BF92CF92DF92CE
:10276000EF92FF920F931F93CF93DF936C01D62FBD
:10277000C72FFC01058102950F70128111110E9473
:10278000B21B0E94851BE82E882371F01123B1F043
:1027900080E28D0F883090F082E00E94291C0E9418
:1027A000851B91E0E82EE926BC2EB2949FE0B92269
:1027B000EB2DF0E0E750FA4D0C947C25E12CF4CFA2
:1027C0000C2F0F70C07F11F00295007F1123A9F02C
:1027D000002359F080E28D0F883010F0D11109C02C
:1027E000802F0E948F1B0E94DE1B8D2F0E941E13C4
:1027F00014C0802F0E94A51BF6CF8D2F0E9464135A
:10280000002359F080E28D0F883010F0D1112CC0D8
:10281000802F0E94951B0E94DE1B2B2D2850330B0E
:102820002430310520F40E9403120E946A03EE2036
:1028300009F493C10E94811B80FD8FC1F6011282B1
:102840000E947B1B0E94041AC6010E94CE150E94A2
:102850007B1BDF91CF911F910F91FF90EF90DF9045
:10286000CF90BF900C94251A802F0E94AB1BD3CF22
:10287000FC2FFF70FF2EC07FC03219F0F29480EF62
:10288000F822DD2369F0D13049F1112391F10023C1
:1028900051F1F601858180FFA8CF8F70858323C019
:1028A000112381F0011106C00E94C51B8F290E94CF
:1028B0009F13B3CF0130C1F70E94C51B8F290E941F
:1028C000CB1BABCF011106C00E94D41B8F2D0E94E1
:1028D000A613A3CF013009F4A0CFF6CF112329F01E
:1028E000063008F09ACF8F2DE2CF053008F095CF53
:1028F000EDCF002359F3D93349F4FFEF27EE33E04E
:10290000F15020403040E1F700C000008D2F0E94C0
:10291000641383CF8C2F86958695837069F0813000
:1029200009F07BCF8D2F9C2F9370111102C090E086
:1029300080E00E943F1271CF8D2F9C2F9370111158
:1029400002C090E080E00E94291267CF8C2F837034
:1029500009F041C0111161CF4D2F42954695477046
:10296000440F440F0D2F0F7010E030E020E0042ED4
:1029700004C0000F111F221F331F0A94D2F760E01A
:1029800070E0CB01D4FF0FC06FE070E080E090E01A
:1029900004C0660F771F881F991F4A95D2F760956C
:1029A000709580959095C695C695C370602B712BD8
:1029B000822B932BC23049F058F4C13019F00E9499
:1029C000B6192BCF0E94A41928CF0E94C81925CF71
:1029D0000E94A21922CF8695112311F08C2F8170AD
:1029E000882309F41ACF4D2F429546954770440F1E
:1029F000440F0D2F0F7010E030E020E0042E04C0D3
:102A0000000F111F221F331F0A94D2F760E070E0FD
:102A1000CB01D4FF0FC06FE070E080E090E004C015
:102A2000660F771F881F991F4A95D2F7609570959A
:102A300080959095C695C695C370602B712B822B9F
:102A4000932BC23049F058F4C13019F00E947B1A20
:102A5000E4CE0E94691AE1CE0E948D1ADECE0E9459
:102A6000DE19DBCECF70112329F08C2F0E94041ABF
:102A70008D2F1DCF8D2F0E94A6138C2F0E94251AFB
:102A8000CCCED23F89F160F4D03FC9F0D13F29F1DB
:102A9000112309F442C00111A8CE8C2F8F7121C0DF
:102AA000D33F39F1D43FA1F7112369F1CF718C2FB6
:102AB0000E94041A63E08C2F0E94141CAECE1123D6
:102AC00041F0053008F0A9CE8C2F8F710E94481A72
:102AD000A4CE063008F0A1CEF7CF8C2F8F71112332
:102AE00069F20E94041A99CE8C2F8F711123C9F3B9
:102AF000C5CF112329F08C2F8F710E94EF198DCE35
:102B00000E94EA198ACE81E00E94291C023008F452
:102B100084CE82E00E94291C80CE002359F0D93354
:102B200009F0F4CE8FEF97EEE3E081509040E04063
:102B3000E1F7EACE8C2F8F71A1CF4C2F4F706D2F04
:102B4000C6010E94D4030E941A1967CE4C2F4F7001
:102B50006D2FC6010E94D70360CEDF91CF911F91E8
:102B60000F91FF90EF90DF90CF90BF9008950F935B
:102B70001F93CF93DF93EC01688179818A810E9452
:102B8000431B8C010E949F1A0E94A119B801CE011B
:102B9000DF91CF911F910F910C94AD13CF93DF93E1
:102BA000EC018B819C81892B29F088819981892373
:102BB0008F3F19F4DF91CF910895CE010E948203D7
:102BC0008823C1F3CE010E94B715CE01DF91CF91CA
:102BD0000C943803882321F00E94A51B0C94DE1B63
:102BE0000895882321F00E94AB1B0C94DE1B0895EE
:102BF0000E94B21B0E94C21B0E94DE1B90E080E07C
:102C00000E94291290E080E00C943F120E94751BF4
:102C10000C94F8150E949F1B0C940616E92FE29560
:102C2000EF70E250EE3070F4F0E0E75FF94D0C9495
:102C30007C25803F19F020F4883E20F481E008953F
:102C4000843FE1F380E00895883EC0F3813FD1F7EF
:102C5000F5CF93FB882780F908950E94391B0C94C7
:102C60000E16CF93DF9300D000D00F92CDB7DEB712
:102C70000F900F900F900F900F90DF91CF910895CC
:102C8000CF93DF9300D000D000D0CDB7DEB726962B
:102C90000FB6F894DEBF0FBECDBFDF91CF91089580
:102CA0001F93CF93DF93C091090216E080910A022F
:102CB0008C1304C0DF91CF911F910895D0E01C9F29
:102CC000F0011D9FF00D1124E55FFD4F4081518102
:102CD00062817381848195810E9440162196C7701C
:102CE000E5CF40913B0250913C0260913D027091D2
:102CF0003E0280913F02909140020C9440161F9337
:102D0000CF93DF9380914002807FA9F480913D02B0
:102D1000882389F080910902C0910A0260913B02E8
:102D200070913C02A0913E02B0913F02D62FD72372
:102D300016E0C81304C0DF91CF911F91089590E071
:102D4000109711F0DF3F19F401968770F2CF189FAA
:102D50009001199F300D1124F901E55FFD4F41816C
:102D60004713F2CF40814613EFCF42814111ECCFA0
:102D7000438154814A1B5B0B483C510528F78091E5
:102D800040028F70806180934002F901E05FFD4F47
:102D900080818F70806180838BE392E00E94CE15EA
:102DA000DF91CF911F910C945016AF92BF92CF92AA
:102DB000DF92EF92FF920F931F93CF93DF93CDB7E4
:102DC000DEB761970FB6F894DEBF0FBECDBF8C01A2
:102DD00085E0F801DE011D9601900D928A95E1F7DC
:102DE000F80140815181E2808BE3C82E82E0D82E29
:102DF00060913E0270913F026115710509F461C155
:102E000090913B0220913C02892F82238F3F09F44D
:102E100058C1A380B480F0903D02F501E61BF70B8A
:102E2000FF2009F4FCC080914002382F307FE83C3D
:102E3000F10508F0B2C0311179C0FE2C251323C072
:102E4000941321C0E1101FC08F70806180934002F5
:102E50000E947116C6010E94CE1580914002F801B1
:102E600085838F2D61960FB6F894DEBF0FBECDBF60
:102E7000DF91CF911F910F91FF90EF90DF90CF9056
:102E8000BF90AF900895AB2829F0842F85238F3F02
:102E900009F033C180E0F82FF170DF2E80FF3CC0D5
:102EA0008091090220910A0236E0821315C04D87F5
:102EB0005E878D859E850E94391B292F22952F7054
:102EC0002230F0F0243018F59F70F1F0F801958170
:102ED000907FD1F4D12C1EC090E0389FF001399F33
:102EE000F00D1124E55FFD4F6181651306C060811F
:102EF000641303C062816E110FC001968770D5CF35
:102F00009F7011F0882331F3805E883018F3C80178
:102F10000E94CE15FD2CA5CFEE2009F4A2CF809102
:102F20004002816080934002F12C9BCF251306C0A4
:102F3000941304C0F801EE2009F48DC04D875E871C
:102F40008D859E850E942D16882319F1EE2009F1AA
:102F500080914002803270F020913B0230913C021F
:102F600038872F831986BB86AA868C87CE01079661
:102F70000E94CE1586E0F801ABE3B2E001900D921D
:102F80008A95E1F70E947F160E947116FF24F39440
:102F900068CFC8010E94CE15F9CF311113C07A2D28
:102FA000B98AA88A6E2D89890E9431168BE392E036
:102FB0000E94CE1586E0F60111928A95E9F70E94EB
:102FC0007116B2CF25130FC094130DC0E1100BC0C2
:102FD000F8018583C8010E94CE1586E0F6011192A2
:102FE0008A95E9F73ECF4D875E878D859E850E9445
:102FF0002D16882371F2EE2061F28091400280321A
:1030000008F4B8CF20913B0230913C023A832983E7
:103010001B82BD82AC828E83CE010196A9CFE83C93
:10302000F10508F041C0FE2CEE2009F4B2CF2513C3
:103030002AC0941328C08091400280FD1BC0982FA5
:10304000907FC1F0F8018583903F31F0982F907FF9
:10305000905F8F70892B8583C8010E94CE1586E012
:10306000F801ABE3B2E001900D928A95E1F70E947E
:103070007116F7CE86E0F801ABE3B2E001900D9255
:103080008A95E1F7EECE4D875E878D859E850E94FD
:103090002D1681116FCF8091400281608093400294
:1030A000C8010E94CE15DDCE7A2DB98AA88A6E2D70
:1030B00089890E94311686E0F60111928A95E9F716
:1030C000D6CFEE2009F465CF4D875E878D859E852E
:1030D0000E942D16F82E882309F45BCF86E0F801B4
:1030E000ABE3B2E001900D928A95E1F78BE392E0B9
:1030F0000E9419130E947F16BACF81E08E25CBCE95
:103100001F93CF93DF93CDB7DEB72C970FB6F8940C
:10311000DEBF0FBECDBF4F83588769877A878B8705
:103120009C87CE0107960E94D516882369F08A8570
:103130009B85892B39F04F815885842F85238F3FBC
:1031400009F071C016E05FC086E0FE013796DE012F
:10315000119601900D928A95E1F78A859B85892BBE
:1031600089F388859F8189238F3F61F320910A022B
:1031700030E0C901019687709927409109024817EC
:10318000190671F40E940A1610920A02109209029E
:1031900086E0EBE3F2E0DF011D928A95E9F7D2CFFA
:1031A00096E0929FD001939FB00D1124A55FBD4F73
:1031B000FE01319601900D929A95E1F780930A02F3
:1031C0000E945016BFCF819FC0011124855F9D4F83
:1031D0000E94D5168823E9F0E09109021E9FF001B4
:1031E0001124E55FFD4F40815181628173818481AB
:1031F00095810E9440168091090290E001968770A7
:103200009927809309028091090290910A028913FB
:10321000DACF2C960FB6F894DEBF0FBECDBFDF918C
:10322000CF911F91089569857A858B859C850E9431
:10323000401688CFEF92FF920F931F93CF93DF93A7
:103240008C01892B81F0F12CEE24E394E801219686
:10325000F8018491843770F4843008F05FC08130C5
:10326000B1F08230A1F1DF91CF911F910F91FF90CA
:10327000EF900895853709F44CC008F43DC09CE7F1
:10328000980F903780F78F770E94641349C00E5FC4
:103290001F4FFE01849190E2980F983060F4877080
:1032A000FE2D01C0FF0F8A95EAF78F2F0E94B51BF4
:1032B0000E94DE1B02C00E941E138F2D815030F22F
:1032C000EFE9FFE03197F1F700C00000F7CF0E5FA4
:1032D0001F4FFE01849190E2980F983050F4877050
:1032E000FE2D01C0FF0F8A95EAF78F2F0E94BB1BAE
:1032F000DFCF0E946413E1CF0E5F1F4FFE01C49128
:10330000C150D8F28FE99FE00197F1F700C00000AB
:10331000F7CF0E5F1F4FFE01F490CFCF0E941E1318
:103320008E01CBCF08950C9492190E94931960934B
:103330004A0270934B0280934C0290934D020C947E
:10334000F81508950C9495190F931F9300914A0254
:1033500010914B0220914C0230914D02602B712B49
:10336000822B932B1F910F910C9495190F931F9300
:1033700000914A0210914B0220914C0230914D0273
:1033800060237123822393231F910F910C9495192D
:103390000F931F9300914A0210914B0220914C020F
:1033A00030914D0260277127822793271F910F913B
:1033B0000C9495190C9492190C94DA190E94DC194A
:1033C00060934602709347028093480290934902AB
:1033D0000C94F81560E070E0CB010C94DE190F93AB
:1033E0001F9341E050E060E070E08A019B0104C05F
:1033F000000F111F221F331F8A95D2F7C901B80190
:103400001F910F910C94DE190F931F9341E050E030
:1034100060E070E004C0440F551F661F771F8A9557
:10342000D2F78091460290914702A0914802B09154
:1034300049028A019B01082B192B2A2B3B2BC9011E
:10344000B8011F910F910C94DE190F931F9341E067
:1034500050E060E070E004C0440F551F661F771F06
:103460008A95D2F7CB01BA016095709580959095B9
:103470000091460210914702209148023091490282
:1034800060237123822393231F910F910C94DE19E3
:103490000F931F9341E050E060E070E004C0440FE0
:1034A000551F661F771F8A95D2F78091460290912B
:1034B0004702A0914802B09149028A019B01082766
:1034C00019272A273B27C901B8011F910F910C9496
:1034D000DE190F931F93009146021091470220912D
:1034E000480230914902602B712B822B932B1F9144
:1034F0000F910C94DE190F931F93009146021091C7
:1035000047022091480230914902602371238223AF
:1035100093231F910F910C94DE190F931F93009129
:1035200046021091470220914802309149026027DB
:103530007127822793271F910F910C94DE1908950C
:10354000E92FEE0FEE0F9E0F890F982F977041E035
:1035500001C0440F9A95EAF786958695869595E081
:10356000899FF0011124EF5BFD4F30E020E070E017
:103570005191DF011197CB01022E02C096958795DC
:103580000A94E2F7817081958527842385278C939F
:103590002F5F3F4F2530310559F70895E92FEE0F82
:1035A000EE0F9E0F890F982F9770869586958695BA
:1035B00025E0829FF0011124EF5BFD4F50E040E0D9
:1035C00080E0219130E0092E02C0369527950A94BB
:1035D000E2F721703327042E01C0220F0A94EAF784
:1035E000822B4F5F5F4F4530510559F70895BF92C9
:1035F000CF92DF92EF92FF920F931F93CF93DF93BF
:103600008C01C0904602D0904702E0904802F090B2
:10361000490280914A0290914B02A0914C02B091D4
:103620004D02C82AD92AEA2AFB2ACFE1D0E0BC2ED3
:10363000D701C6010C2E04C0B695A795979587951E
:103640000A94D2F780FD0EC0219788F7B12C8B2DFC
:10365000DF91CF911F910F91FF90EF90DF90CF906E
:10366000BF900895B8018C2F0E94F603019761F373
:10367000EECFCF93DF93EC010E94F71ABE01DF91EA
:10368000CF910C94F6031F93CF93DF93EB019091AE
:103690000802992331F0CB01DF91CF911F910C9457
:1036A000391B882379F0CB010E94F71A182F682F55
:1036B000CE010E94A01ABE01812FDF91CF911F91F0
:1036C0000C94F603CB010E94CE1A182FF4CF682F6A
:1036D00080912701909128010C94791D682F809189
:1036E0002701909128010C94841D809127019091CD
:1036F00028010C948F1D80914E02859585958595A6
:10370000089580914E028770089590914E029770AF
:1037100081E009F480E0089580917202089590910B
:103720007202892B809372020895809590917202A3
:1037300098239093720208958093720208951092D4
:103740007202089580917102089590917102892BFF
:1037500080937102089580959091710298239093BF
:103760007102089510927102089590917002892B50
:1037700080937002089580959091700298239093A1
:103780007002089510927002089580914F0208957A
:1037900008950C94C81B90914F02981721F08093C4
:1037A0004F020C94C91B089580914F02882329F081
:1037B00010924F0280E00C94C91B0895E0912701FC
:1037C000F0912801809172028083E0912701F091AD
:1037D0002801808190917102892B8083E0912701DB
:1037E000F0912801808190917002892B80839091C3
:1037F0004F02992381F0E0912701F0912801808107
:10380000892B808380912701909128010E94E51CDB
:1038100081110E94D41B80912701909128010C9462
:103820000F1208950C94111C98E0899F90011124A7
:10383000622B60934E020E94041A80914E0285957D
:10384000859585950C94121C10924E0280E00C9484
:10385000121C90914E028095892380934E02282F4E
:10386000277071F4282F082E000C330B92171306C3
:1038700039F08595859585950E94251A0C94241C10
:10388000089590E080E00E94A92521E08C3E9E4FA3
:1038900009F020E0822F089582E090E00C949B25AF
:1038A00083E090E00C949B25CF9384E090E00E940D
:1038B0009B25C82F81E290E00E949B25982F8C2F9A
:1038C000CF910895CF93C92F682F84E090E00E9494
:1038D000AF256C2F81E290E0CF910C94AF25AB0126
:1038E000BC018FE090E00C94C125AB01BC0183E1E9
:1038F00090E00C94C12560E070E0CB010C94751C45
:1039000060E070E0CB010E946F1C0C947B1C6CEE9D
:103910007EEF90E080E00E94CD2560E082E090E0C4
:103920000E94AF2560E083E090E00E94AF251092F6
:103930004A0210924B0210924C0210924D0260E02B
:1039400084E090E00E94AF2560E081E290E00E9478
:10395000AF2560E085E090E00E94AF2560E086E062
:1039600090E00E94AF256FEF87E090E00E94AF25C6
:1039700040E050E0BA0188E090E00E94C12560E09C
:103980008DE090E00E94AF2540E050E0BA0188E170
:1039900090E00E94C12560E087E190E00E94AF25A1
:1039A00040E050E0BA018CE190E00E94C12560E067
:1039B00080E290E00E94AF250C94801C0C94871C40
:1039C000682F8EE090E00C94AF25FC013296809138
:1039D0003301882321F08091B7029EE187FF96E0B2
:1039E00080E0915008F4089521912223D1F38F5F54
:1039F000F8CF662301F1209133012223F1F02091C9
:103A0000B70227FF1AC0462F4695469546954E3178
:103A100090F4677021E030E002C0220F331F6A95F6
:103A2000E2F7840F911DFC01828190E02823392365
:103A300081E0232B69F480E00895FC01329608961A
:103A40002191261721F0E817F907D1F7F4CF81E08B
:103A500008959C01FC0132969FEF80E0419146174A
:103A600051F09F3F19F4411101C0982F8F5F8630AC
:103A7000A9F79F3F09F40895290F311D97FD3A9545
:103A8000F90162830895FC0132960896219126136C
:103A900003C0DF0111971C92E817F907B9F70895E1
:103AA000E62FE695E695E695EE3168F4E80FF92FF6
:103AB000F11D677021E030E001C0220F6A95EAF73E
:103AC0008281822B82830895E62FE695E695E6951E
:103AD000EE3170F4E80FF92FF11D677021E030E04E
:103AE00001C0220F6A95EAF720958281282322835C
:103AF000089520913301222329F02091B70227FD58
:103B00000C94501D0C94291D20913301222329F07F
:103B10002091B70227FD0C94641D0C94431DFC01F9
:103B2000329680913301882351F08091B70287FF4C
:103B300006C08EE1DF011D928A95E9F7089586E0BF
:103B4000F9CF089508950C94A21D0E94A31D8091A1
:103B5000BD02843049F11092740288E190E020E4C3
:103B60000FB6F894A895809360000FBE2093600074
:103B700080E00E946A030E94A31D83B7817F846056
:103B800083BF83B7816083BF7894889583B78E7F26
:103B900083BF0FB6F894A8958091600088618093E8
:103BA0006000109260000FBE089508950E94A11D4C
:103BB0000E9410060E94D51D80E00E94E00591E061
:103BC000811101C090E0892F089508950C94E51D9E
:103BD0000E940A160E9403120E946A030C94E61DBA
:103BE0001F921FB61F9211248F939F93AF93BF9381
:103BF00080917402811113C08091B3029091B4023C
:103C0000A091B502B091B6024196A11DB11D80935D
:103C1000B3029093B402A093B502B093B602BF91E1
:103C2000AF919F918F911F901FBE1F90189582E0BA
:103C300084BD93E095BD9AEF97BD80936E00089583
:103C40002FB7F8948091B3029091B402A091B5027D
:103C5000B091B6022FBF08959C014FB7F8948091A0
:103C6000B3029091B402A091B502B091B6024FBFD9
:103C7000821B930B089578941F921FB61F921124F4
:103C80008F939F93AF93BF938091B3029091B402AF
:103C9000A091B502B091B6020196A11DB11D80930D
:103CA000B3029093B402A093B502B093B602BF9151
:103CB000AF919F918F911F901FBE1F90189587E71E
:103CC00097E7909301088093000888E19AE00FB687
:103CD000F894A895809360000FBE90936000FFCF8A
:103CE0000E94411C811102C00E94DE1C0E944C1CDB
:103CF000809373020E94541C9093B8028093B70281
:103D00000E94501C682F70E090E080E00C94A21993
:103D10008091950208950895CF93DF9300D00F927C
:103D2000CDB7DEB79091BD02943019F589837B83BE
:103D30006A8382E08093E9008FEF9091E8008150E0
:103D400095FD06C095ED9A95F1F700008111F5CF2C
:103D50008091E80085FF0DC050E040E063E070E036
:103D6000CE0101960E94B5208091E8008E77809365
:103D7000E8000F900F900F90DF91CF910895CF93AF
:103D8000DF93EC010E949820823011F0843031F4EE
:103D9000BE0184E0DF91CF910C948C1EDF91CF9116
:103DA0000895BC0183E00C948C1ECF93DF93EC014B
:103DB0000E949820823011F08430B9F5809133014F
:103DC0008823B1F18091B70287FF32C060E282E0C0
:103DD0008093E9008FEF9091E800815095FD06C037
:103DE00095ED9A95F1F700008111F5CF8091E800EB
:103DF00085FF1BC08091330170E050E040E08111ED
:103E000004C050E040E068E070E0CE010E94B520C0
:103E10008091E8008E778093E80080E2FE01A5E7BC
:103E2000B2E001900D928A95E1F7DF91CF9108956C
:103E300068E081E0CDCF8091BC02811109C00E9471
:103E400045220E94A2228091E20084608093E200D9
:103E500008951092BC020895089508950C94E81DE9
:103E600042E061EC81E00E94C12142E261EC82E02B
:103E70000C94C1218091BF02833009F45FC030F4FB
:103E80008130C1F1823009F49BC008958A3009F471
:103E900087C08B3009F46DC0893009F04EC0809125
:103EA000BE02813209F049C08091C2029091C302E2
:103EB000029708F042C08091E800877F8093E80075
:103EC0008091E80082FF35C09091F3008091F2006C
:103ED000029729F48091F1008B7F813021F4809149
:103EE000F100809395028091E8008B778093E80041
:103EF0000C94F5218091BE02813AF9F48091E8009A
:103F0000877F8093E8008091C2029091C302892B41
:103F100061F460E285E792E070E00E940421809104
:103F2000E8008B778093E800089560E090E080E0FF
:103F3000F3CF8091BD028111C3CF08958091BE025D
:103F4000813AD9F78091C2029091C302892BA9F7D7
:103F50008091E800877F8093E8008091E80080FFEF
:103F6000FCCF809133018093F1008091E8008E773F
:103F7000BDCF8091BE02813201F78091C202909143
:103F8000C302892BD1F68091E800877F8093E800F7
:103F90000E94F5218091C002809333010C940A168F
:103FA0008091BE02813249F68091E800877F80933C
:103FB000E8000E94F5218091C10280939602089545
:103FC0008091BE02813A09F0B8CF8091E800877FE6
:103FD0008093E8008091E80080FFFCCF80919602FA
:103FE000C2CF84B7877F84BF0FB6F894A89580911D
:103FF0006000886180936000109260000FBE80E8CE
:1040000090E00FB6F89480936100909361000FBE2A
:104010000E9463120E9445220E94A2228091E20027
:1040200084608093E20078940E942B250E946B129A
:1040300089E291E00E94FE118091BD02853019F065
:104040000E947512F9CF0E94A51D8091BB028823A2
:1040500099F30E94D61D882379F30E949F20ECCF0C
:104060000C943220292F33272330310519F168F4BD
:104070002130310509F44AC02230310509F44BC022
:1040800090E080E030E020E028C02132310579F175
:1040900022323105A9F780E490E029EC33E0611584
:1040A0007105D9F08DE690E02CE533E061307105C3
:1040B000A1F0E6CF99278130910599F0009741F062
:1040C0008230910589F00397D9F6EDECF2E002C059
:1040D000EBE0F3E0849190E09F01FA0131832083CB
:1040E0000895EBEEF2E0F6CFE3EDF2E0F3CF89E0F6
:1040F00090E021E233E06115710579F389E090E009
:104100002AE333E06130710541F3BACF82E190E0F8
:104110002AE433E0E2CF8BE390E02FE033E0DDCF21
:104120008091BD02843011F482E0089581E0089509
:1041300080919702811102C00C949020089580E133
:1041400089BD82E189BD09B400FEFDCF8091D80010
:104150008F7D8093D8008091E00082608093E000A2
:104160008091E00081FDFCCF0895AF92BF92CF9285
:10417000DF92FF920F931F93CF93DF936C01EB01BC
:104180008A010E941422F82E811123C00115110505
:1041900039F0F80180819181C81BD90BC80ED91E56
:1041A000B12CA12C2097A9F08091E80085FD22C0B8
:1041B0008091E8008E778093E80001151105A1F049
:1041C000F80180819181A80EB91EB182A08285E09C
:1041D000F82E8F2DDF91CF911F910F91FF90DF90DF
:1041E000CF90BF90AF9008950E9414228823D1F2FF
:1041F000F82EEFCFF60181916F018093F1002197A6
:10420000FFEFAF1ABF0ACECFFC018091C40290919C
:10421000C50286179707A0F06115710529F49091E2
:10422000E8009E779093E80090E06115710551F4E5
:10423000911108C08091E80082FF34C080E00895A9
:10424000BC01F2CF8091BD028823C1F18530C1F15C
:104250008091E80083FD30C08091E80082FDEACFC4
:104260008091E80080FFE1CF8091F3002091F2007F
:10427000382F6115710519F02830310558F091E09B
:104280002830310509F090E02091E8002E77209346
:10429000E800CBCF81918093F100615071092F5FCD
:1042A0003F4FE7CF8091BD02882341F0853041F038
:1042B0008091E80083FFBECF81E0089582E00895F9
:1042C00083E00895FC018091C4029091C502861795
:1042D0009707A0F06115710529F48091E8008E77A9
:1042E0008093E80090E06115710551F4911108C0C8
:1042F0008091E80082FF35C080E00895BC01F2CFD4
:104300008091BD028823C9F18530C9F18091E80010
:1043100083FD31C08091E80082FDEACF8091E80002
:1043200080FFE1CF8091F3002091F200382F6115DA
:10433000710519F02830310558F091E02830310529
:1043400009F090E08091E8008E778093E800CBCF71
:1043500084918093F1003196615071092F5F3F4F36
:10436000E6CF8091BD02882341F0853041F08091F5
:10437000E80083FFBDCF81E0089582E0089583E0E7
:104380000895982F973028F08F708093E90081E08E
:1043900008959093E900242F762F50E0981731F07C
:1043A0007091EC002091ED005091F00021FD02C0D1
:1043B0009F5FE8CF3091EB003E7F3093EB00309170
:1043C000ED003D7F3093ED003091EB003160309394
:1043D000EB007093EC002093ED005093F0002091DF
:1043E000EE0027FDE5CF80E008958091BE0287FFB3
:1043F00013C08091E80082FF06C08091E8008B77AF
:104400008093E80004C08091BD028111F2CF08952D
:104410008091BD028823D9F38091E80080FFF8CF16
:104420008091E8008E77ECCF2091E4003091E50098
:1044300095E6A9012091EC00822F817020FF06C033
:104440008091E80080FF06C080E008952091E80098
:1044500022FD1AC08091BD02882389F0853089F041
:104460008091EB0085FD0FC02091E4003091E500C4
:1044700042175307F9F29150E1F684E0089582E083
:10448000089583E0089581E008950E94B3220E9478
:10449000BB22E0EEF0E0808181608083E8EDF0E017
:1044A00080818F77808319BCA7EDB0E08C918E7FDF
:1044B0008C9380818F7E80831092BC0208950F932D
:1044C0001F93CF93DF930E94B3220E94BB22C8EDBB
:1044D000D0E088818F77888388818068888388810D
:1044E0008F7D888319BC1092BD021092B902109280
:1044F000BB021092BA0200EE10E0F80180818B7FBF
:10450000808388818160888342E060E080E00E944F
:10451000C121E1EEF0E080818E7F8083E2EEF0E069
:10452000808181608083808188608083F8018081C0
:104530008E7F8083888180618883DF91CF911F91F6
:104540000F910895E8EDF0E080818F7E8083E7EDA4
:10455000F0E080818160808384E082BF81E080938D
:10456000BC020C945F22E8EDF0E080818E7F8083B6
:104570001092E20008951092DA001092E10008957E
:104580001F920F920FB60F9211242F933F934F93C8
:104590005F936F937F938F939F93AF93BF93EF93AB
:1045A000FF938091E10082FF0BC08091E20082FFC7
:1045B00007C08091E1008B7F8093E1000E942A2553
:1045C0008091DA0080FF19C08091D80080FF15C06B
:1045D0008091DA008E7F8093DA008091D90080FF8D
:1045E00096C080E189BD82E189BD09B400FEFDCF9E
:1045F00081E08093BD020E941B1F8091E10080FF3B
:1046000019C08091E20080FF15C08091E2008E7F8A
:104610008093E2008091E20080618093E2008091CB
:10462000D80080628093D80019BC85E08093BD02D9
:104630000E942D1F8091E10084FF2BC08091E20039
:1046400084FF27C080E189BD82E189BD89B5982FAB
:10465000917080FFFBCF8091D8008F7D8093D80030
:104660008091E1008F7E8093E1008091E2008F7E57
:104670008093E2008091E20081608093E20080916B
:10468000B902882309F449C084E08093BD020E94E6
:104690002E1F8091E10083FF29C08091E20083FFFB
:1046A00025C08091E100877F8093E10082E08093C4
:1046B000BD021092B9028091E1008E7F8093E100EB
:1046C0008091E2008E7F8093E2008091E200806121
:1046D0008093E20042E060E080E00E94C12180918E
:1046E000F00088608093F0000E942C1FFF91EF91F2
:1046F000BF91AF919F918F917F916F915F914F91FA
:104700003F912F910F900FBE0F901F90189519BCDD
:104710001092BD020E94291F70CF8091E30087FD97
:1047200093E09093BD02B3CF1F920F920FB60F92FA
:1047300011242F933F934F935F936F937F938F93A6
:104740009F93AF93BF93CF93DF93EF93FF93D0915A
:10475000E900DF708091EC00C82FC17080FDC0E8D7
:104760001092E9008091F000877F8093F0007894A8
:104770000E94D8231092E9008091F0008860809315
:10478000F000CD2BCF70C093E900FF91EF91DF9146
:10479000CF91BF91AF919F918F917F916F915F91D9
:1047A0004F913F912F910F900FBE0F901F90189532
:1047B0001F93CF93DF93CDB7DEB7AA970FB6F894C8
:1047C000DEBF0FBECDBF8EEB92E02091F100FC0169
:1047D0002193CF01F2E0863C9F07B9F70E943A1F70
:1047E0008091E80083FF1EC18091BE029091BF02BC
:1047F0009A3008F017C1E92FF0E0E95EF94D0C940A
:104800007C25803899F0823809F00CC18091C20271
:104810008F70873008F006C18093E9008091EB002B
:1048200085FB882780F91092E90006C08091BA02C2
:104830009091BB02911182609091E800977F9093D4
:10484000E8008093F1001092F1008091E8008E77EB
:10485000E5C0882309F4D3C0823009F0E3C0809119
:10486000C0028111D6C08091C2028F702FEF280F35
:10487000263008F0D7C08093E9002091EB0020FF9C
:10488000C8C0933031F48091EB0080628093EB00DC
:10489000C0C09091EB0090619093EB0021E030E07C
:1048A00001C0220F8A95EAF72093EA001092EA00ED
:1048B0008091EB008860EACF8111B4C01091C002F2
:1048C0001F778091E3008078812B8093E3008091B3
:1048D000E800877F8093E8000E94F5218091E8003E
:1048E00080FFFCCF8091E30080688093E30082E04A
:1048F000111183E08093BD0295C08058823008F08A
:1049000091C08091C0029091C1028C3D23E092073A
:10491000A1F583E08A838AE289834FB7F894DE01A8
:10492000139620E03EE051E2E32FF0E05093570071
:10493000E49120FF03C0E295EF703F5FEF708E2F90
:1049400090E0EA30C0F0C7968D939D932F5F24319D
:1049500059F74FBF8091E800877F8093E8006AE2B3
:1049600070E0CE0101960E9404218091E8008B77CF
:104970008093E80057C0C096E7CF6091C202709163
:10498000C302AE014F5F5F4F0E943020BC01892BF4
:1049900009F448C09091E800977F9093E8008981DE
:1049A0009A810E946221E1CF8038E1F58091E80090
:1049B000877F8093E8008091B9028093F10045CF12
:1049C000811130C09091C002923060F58091E80072
:1049D000877F8093E8009093B9020E94F52180912F
:1049E000B902882311F084E005C08091E30087FDBF
:1049F000FACF81E08093BD020E94301F13C08091E6
:104A0000C002813079F481E0933009F080E0809336
:104A1000BB021092E9008091E800877F8093E80054
:104A20000E94F5218091E80083FF0AC08091E80090
:104A3000877F8093E8008091EB0080628093EB0099
:104A4000AA960FB6F894DEBF0FBECDBFDF91CF910F
:104A50001F9108950895CF938091BD028823A1F0FE
:104A6000C091E900CF709091EC00892F817090FD8A
:104A700080E8C82B1092E9008091E80083FD0E9435
:104A8000D823CF70C093E900CF91089587FB082EFB
:104A9000062687FD819567FD61950E9482250EF4AB
:104AA000919507FC81950895AA1BBB1B51E107C096
:104AB000AA1FBB1FA617B70710F0A61BB70B881FAE
:104AC000991F5A95A9F780959095BC01CD0108953D
:104AD00097FB072E16F4009407D077FD09D00E94AB
:104AE000542507FC05D03EF4909581959F4F08957D
:104AF000709561957F4F0895EE0FFF1F0590F4911B
:104B0000E02D0994991B79E004C0991F961708F0CD
:104B1000961B881F7A95C9F780950895FC0141502E
:104B2000504030F001900616D1F73197CF0108952B
:104B3000882799270895F999FECF92BD81BDF89AEB
:104B4000992780B50895A6E1B0E044E050E00C94C8
:104B5000D525A8E1B0E042E050E00C94D525262F01
:104B6000F999FECF92BD81BDF89A019700B4021663
:104B700039F01FBA20BD0FB6F894FA9AF99A0FBE11
:104B800008950396272F0E94B0250E94AF25252F58
:104B90000E94B025242F0C94B0250196272F0E9447
:104BA000B0250C94AF25DC01CB01FC01F999FECFB7
:104BB00006C0F2BDE1BDF89A319600B40D924150A5
:104BC0005040B8F70895F894FFCF670C6F0C760C3F
:104BD0007B0C800C850C8A0C8F0C940C990C9E0C11
:104BE000A30CA70CAC0CAF0CB20CB50CB80CBA0CE7
:104BF000BD0CE013E013381438148A140D140D148E
:104C00000D14A6143215411541159D150D140D14E2
:104C1000A615191619162216221624162216221661
:104C200022161916191629162216221629160124DB
:104C300029241225292412255C247D241225D4241C
:024C4000E0246E
:104C42000000500200000000000000000000000010
:104C5200000000000000010205050501191A1B1CD5
:104C62001D1E1F202122FF5002881ED51E8B1ED121
:104C72001EBF1E01E200E900EA00B500B600B7005F
:104C8200CD008301CC008A0192019401210223020A
:104C920024022502260227022A02B300B4006F0072
:104CA2007000818283F436329734000102020202DC
:104CB2000606060909090909090F0F0F0F0F0F153B
:104CC200151518191919191919191919192324005F
:104CD200FF0100010000FFFF0000010001FF00F5DD
:104CE200929190C693F6F79466E200E900EA00B565
:104CF20000B600B700CD008301CC008A0192019476
:104D0200012102230224022502260227022A02B3DB
:0A4D120000B4006F0070008182837E
:00000001FF
